:100E950050617373776F72642D00436F727265636F
:100EA5007400496E636F72726563740033302B3161
:010EB500003C
:040EEA00021A0000E8
:060E4700D2B17F017E0024
:100E4D00E4FDFCC3ED9FEE6480F8EC6480985014D3
:100E5D00E4FBFA0BBB00010AEBF44A70F60DBD0082
:040E6D00010C80DF15
:010E7100225E
:0C0EB600120EE07FC87E00120E4D7F0679
:0A0EC2008FA0C2B0120E47C2B12289
:0A0EE0008FA0D2B0120E47C2B1225B
:100E72008B148A158916AB14AA15A9161208F6FF47
:100E82006010120EE074012516F516E43515F515FD
:030E920080E422D7
:100ECC007F01120EC27F38120EC27F0E120EC27F2D
:040EDC0080020EC2C0
:100D0B0078087C007D007BFF7A0E79B17E007F0531
:100D1B001208D0751200751302751700751800753F
:100D2B00190D120ECC7BFF7A0E7995120E72E4F52B
:100D3B0011C3E51B9404E51A648094805005120AD4
:100D4B00CC80EEE51B6404451A706478087C00FDCA
:100D5B00FB7A00790D120AAFEF3395E04F701B7FD2
:100D6B00C0120EC27BFF7A0E799F120E72D2B2C2E4
:100D7B00B37F647E00120E4D80C97FC0120EC27B02
:100D8B00FF7A0E79A7120E72751200751302C2B29A
:100D9B00C2B37F647E008012E5136402451270A318
:0F0DAB00C2B47F64FE120E4DD2B4120E4D80E919
:010DBA002216
:100ACC00D297D296D295D294C290D291D292D293FE
:100ADC00209421AB17AA18A919851B82851A837437
:100AEC003712090F7F37120EB6051BE51B70020576
:100AFC001A020B67209520AB17AA18A919851B821F
:100B0C00851A83743812090F7F38120EB6051BE54F
:100B1C001B7048051A8044209620AB17AA18A919F7
:100B2C00851B82851A83743912090F7F39120EB610
:100B3C00051BE51B7025051A802120971EAB17AAF3
:100B4C0018A919851B82851A83742F12090F7F2F00
:100B5C00120EB6051BE51B7002051AD290C291D27B
:100B6C0092D293209421AB17AA18A919851B8285C0
:100B7C001A83743412090F7F34120EB6051BE51B51
:100B8C007002051A020BFA209520AB17AA18A919A6
:100B9C00851B82851A83743512090F7F35120EB6A8
:100BAC00051BE51B7048051A8044209620AB17AA3C
:100BBC0018A919851B82851A83743612090F7F3682
:100BCC00120EB6051BE51B7025051A802120971EF9
:100BDC00AB17AA18A919851B82851A83742A1209C6
:100BEC000F7F2A120EB6051BE51B7002051AD29058
:100BFC00D291C292D293209421AB17AA18A919852D
:100C0C001B82851A83743112090F7F31120EB605BF
:100C1C001BE51B7026051A020C8D209520AB17AA1C
:100C2C0018A919851B82851A83743212090F7F3219
:100C3C00120EB6051BE51B7002051A804420962087
:100C4C00AB17AA18A919851B82851A83743312094C
:100C5C000F7F33120EB6051BE51B7025051A80217C
:100C6C0020971EAB17AA18A919851B82851A8374A5
:100C7C002D12090F7F2D120EB6051BE51B700205F8
:100C8C001AD290D291D292C29320940D7F01120E5F
:100C9C00C2E4F51AF51B020D0B20951FAB17AA1811
:100CAC00A919851B82851A83743012090F7F3012A3
:100CBC000EB6051BE51B7046051A2220961FAB17B6
:100CCC00AA18A919851B82851A83743D12090F7FF6
:100CDC003D120EB6051BE51B7024051A2220971E2B
:100CEC00AB17AA18A919851B82851A83742B1209B4
:0F0CFC000F7F2B120EB6051BE51B7002051A2287
:03000000020DBB33
:0C0DBB00787FE4F6D8FD75811B020E0263
:10080000E709F608DFFA8046E709F208DFFA803EDA
:1008100088828C83E709F0A3DFFA8032E309F608C7
:10082000DFFA8078E309F208DFFA807088828C832F
:10083000E309F0A3DFFA806489828A83E0A3F608E3
:10084000DFFA805889828A83E0A3F208DFFA804CBD
:1008500080D280FA80C680D4806980F28033801094
:1008600080A680EA809A80A880DA80E280CA8033FD
:1008700089828A83ECFAE493A3C8C582C8CCC58375
:10088000CCF0A3C8C582C8CCC583CCDFE9DEE78045
:100890000D89828A83E493A3F608DFF9ECFAA9F0C4
:1008A000EDFB2289828A83ECFAE0A3C8C582C8CC1A
:1008B000C583CCF0A3C8C582C8CCC583CCDFEADE33
:1008C000E880DB89828A83E493A3F208DFF980CC95
:1008D00088F0EF60010E4E60C388F0ED2402B4048E
:1008E0000050B9F582EB2402B4040050AF23234535
:0608F00082239008507302
:1008F600BB010689828A83E0225002E722BBFE0200
:09090600E32289828A83E4932232
:10090F00F8BB010DE58229F582E5833AF583E8F01E
:10091F00225006E92582C8F622BBFE05E92582C8CA
:02092F00F222B2
:10093100E3F5F009E208B5F06D606B80F3E3F5F0E3
:1009410009E608B5F060605E80F387F009E608B556
:10095100F054605280F487F009E208B5F04860462F
:1009610080F488828C8387F009E0A3B5F038603683
:1009710080F488828C8387F009E493A3B5F0276023
:100981002580F388828C83E3F5F009E0A3B5F016A6
:10099100601480F388828C83E3F5F009E493A3B5B6
:1009A100F004600280F2020A5C808580E7808E801C
:1009B100D2803C8015806C807E809B80B5808B804E
:1009C100A1804F8070803A020A6889828A83ECFA9A
:1009D100E493F5F0A3C8C582C8CCC583CCE493A346
:1009E100C8C582C8CCC583CCB5F070606E80E18982
:1009F100828A83E493F5F0A3E208B5F05E605C803F
:100A0100F289828A83E0F5F0A3E608B5F04D604BE8
:100A110080F389828A83E0F5F0A3E208B5F03C60B7
:100A21003A80F389828A83E493F5F0A3E608B5F06E
:100A31002A602880F2805389828A83ECFAE493F554
:100A4100F0A3C8C582C8CCC583CCE0A3C8C582C801
:100A5100CCC583CCB5F004600280E27FFFB5F00223
:100A61000F2240027F012289828A83ECFAE0F5F0AD
:100A7100A3C8C582C8CCC583CCE0A3C8C582C8CCF5
:100A8100C583CCB5F0D560D380E389828A83ECFA43
:100A9100E0F5F0A3C8C582C8CCC583CCE493A3C854
:100AA100C582C8CCC583CCB5F0B160AF80E288F017
:100AB100ED2402B4040050A3F582EB2402B4040037
:0B0AC100509923234582239009AA735B
:100DC700020D0BE493A3F8E493A34003F68001F22A
:100DD70008DFF48029E493A3F85407240CC8C3332D
:100DE700C4540F4420C8834004F456800146F6DFFC
:100DF700E4800B0102040810204080900EEAE47E94
:100E0700019360BCA3FF543F30E509541FFEE493F0
:100E1700A360010ECF54C025E060A840B8E493A3B7
:100E2700FAE493A3F8E493A3C8C582C8CAC583CAE2
:100E3700F0A3C8C582C8CAC583CADFE9DEE780BE9A
:010EEE000003
:00000001FF
